{
  "_format": "hh-sol-artifact-1",
  "contractName": "DataContract",
  "sourceName": "contracts/DataContract.sol",
  "abi": [
    {
      "inputs": [
        {
          "internalType": "string",
          "name": "_cid",
          "type": "string"
        },
        {
          "internalType": "uint256",
          "name": "_price",
          "type": "uint256"
        },
        {
          "internalType": "address",
          "name": "_adminAddress",
          "type": "address"
        }
      ],
      "stateMutability": "nonpayable",
      "type": "constructor"
    },
    {
      "anonymous": false,
      "inputs": [
        {
          "indexed": true,
          "internalType": "address",
          "name": "_buyer",
          "type": "address"
        },
        {
          "indexed": false,
          "internalType": "uint256",
          "name": "_price",
          "type": "uint256"
        }
      ],
      "name": "PurchaseEvent",
      "type": "event"
    },
    {
      "inputs": [],
      "name": "active",
      "outputs": [
        {
          "internalType": "bool",
          "name": "",
          "type": "bool"
        }
      ],
      "stateMutability": "view",
      "type": "function"
    },
    {
      "inputs": [
        {
          "internalType": "uint256",
          "name": "_newPrice",
          "type": "uint256"
        }
      ],
      "name": "changePrice",
      "outputs": [],
      "stateMutability": "nonpayable",
      "type": "function"
    },
    {
      "inputs": [],
      "name": "deployer",
      "outputs": [
        {
          "internalType": "address",
          "name": "",
          "type": "address"
        }
      ],
      "stateMutability": "view",
      "type": "function"
    },
    {
      "inputs": [],
      "name": "getCid",
      "outputs": [
        {
          "internalType": "string",
          "name": "",
          "type": "string"
        }
      ],
      "stateMutability": "view",
      "type": "function"
    },
    {
      "inputs": [],
      "name": "getPrice",
      "outputs": [
        {
          "internalType": "uint256",
          "name": "",
          "type": "uint256"
        }
      ],
      "stateMutability": "view",
      "type": "function"
    },
    {
      "inputs": [
        {
          "internalType": "address",
          "name": "",
          "type": "address"
        }
      ],
      "name": "hasAccess",
      "outputs": [
        {
          "internalType": "bool",
          "name": "",
          "type": "bool"
        }
      ],
      "stateMutability": "view",
      "type": "function"
    },
    {
      "inputs": [],
      "name": "price",
      "outputs": [
        {
          "internalType": "uint256",
          "name": "",
          "type": "uint256"
        }
      ],
      "stateMutability": "view",
      "type": "function"
    },
    {
      "inputs": [],
      "name": "purchaseAccess",
      "outputs": [
        {
          "internalType": "string",
          "name": "",
          "type": "string"
        }
      ],
      "stateMutability": "payable",
      "type": "function"
    },
    {
      "inputs": [],
      "name": "toggleActive",
      "outputs": [],
      "stateMutability": "nonpayable",
      "type": "function"
    }
  ],
  "bytecode": "0x60806040523480156200001157600080fd5b506040516200122f3803806200122f833981810160405281019062000037919062000328565b336000806101000a81548173ffffffffffffffffffffffffffffffffffffffff021916908373ffffffffffffffffffffffffffffffffffffffff1602179055508260029081620000889190620005e4565b50816001819055506001600360006101000a81548160ff02191690831515021790555080600360016101000a81548173ffffffffffffffffffffffffffffffffffffffff021916908373ffffffffffffffffffffffffffffffffffffffff160217905550505050620006cb565b6000604051905090565b600080fd5b600080fd5b600080fd5b600080fd5b6000601f19601f8301169050919050565b7f4e487b7100000000000000000000000000000000000000000000000000000000600052604160045260246000fd5b6200015e8262000113565b810181811067ffffffffffffffff8211171562000180576200017f62000124565b5b80604052505050565b600062000195620000f5565b9050620001a3828262000153565b919050565b600067ffffffffffffffff821115620001c657620001c562000124565b5b620001d18262000113565b9050602081019050919050565b60005b83811015620001fe578082015181840152602081019050620001e1565b60008484015250505050565b6000620002216200021b84620001a8565b62000189565b90508281526020810184848401111562000240576200023f6200010e565b5b6200024d848285620001de565b509392505050565b600082601f8301126200026d576200026c62000109565b5b81516200027f8482602086016200020a565b91505092915050565b6000819050919050565b6200029d8162000288565b8114620002a957600080fd5b50565b600081519050620002bd8162000292565b92915050565b600073ffffffffffffffffffffffffffffffffffffffff82169050919050565b6000620002f082620002c3565b9050919050565b6200030281620002e3565b81146200030e57600080fd5b50565b6000815190506200032281620002f7565b92915050565b600080600060608486031215620003445762000343620000ff565b5b600084015167ffffffffffffffff81111562000365576200036462000104565b5b620003738682870162000255565b93505060206200038686828701620002ac565b9250506040620003998682870162000311565b9150509250925092565b600081519050919050565b7f4e487b7100000000000000000000000000000000000000000000000000000000600052602260045260246000fd5b60006002820490506001821680620003f657607f821691505b6020821081036200040c576200040b620003ae565b5b50919050565b60008190508160005260206000209050919050565b60006020601f8301049050919050565b600082821b905092915050565b600060088302620004767fffffffffffffffffffffffffffffffffffffffffffffffffffffffffffffffff8262000437565b62000482868362000437565b95508019841693508086168417925050509392505050565b6000819050919050565b6000620004c5620004bf620004b98462000288565b6200049a565b62000288565b9050919050565b6000819050919050565b620004e183620004a4565b620004f9620004f082620004cc565b84845462000444565b825550505050565b600090565b6200051062000501565b6200051d818484620004d6565b505050565b5b8181101562000545576200053960008262000506565b60018101905062000523565b5050565b601f82111562000594576200055e8162000412565b620005698462000427565b8101602085101562000579578190505b62000591620005888562000427565b83018262000522565b50505b505050565b600082821c905092915050565b6000620005b96000198460080262000599565b1980831691505092915050565b6000620005d48383620005a6565b9150826002028217905092915050565b620005ef82620003a3565b67ffffffffffffffff8111156200060b576200060a62000124565b5b620006178254620003dd565b6200062482828562000549565b600060209050601f8311600181146200065c576000841562000647578287015190505b620006538582620005c6565b865550620006c3565b601f1984166200066c8662000412565b60005b8281101562000696578489015182556001820191506020850194506020810190506200066f565b86831015620006b65784890151620006b2601f891682620005a6565b8355505b6001600288020188555050505b505050505050565b610b5480620006db6000396000f3fe6080604052600436106100865760003560e01c806399e288d81161005957806399e288d814610135578063a035b1fe14610153578063a2b40d191461017e578063ca00c702146101a7578063d5f39488146101d257610086565b806302fb0c5e1461008b57806329c68dc1146100b657806395a078e8146100cd57806398d5fdca1461010a575b600080fd5b34801561009757600080fd5b506100a06101fd565b6040516100ad919061071a565b60405180910390f35b3480156100c257600080fd5b506100cb610210565b005b3480156100d957600080fd5b506100f460048036038101906100ef9190610798565b610294565b604051610101919061071a565b60405180910390f35b34801561011657600080fd5b5061011f6102b4565b60405161012c91906107de565b60405180910390f35b61013d6102be565b60405161014a9190610889565b60405180910390f35b34801561015f57600080fd5b50610168610555565b60405161017591906107de565b60405180910390f35b34801561018a57600080fd5b506101a560048036038101906101a091906108d7565b61055b565b005b3480156101b357600080fd5b506101bc6105bd565b6040516101c99190610889565b60405180910390f35b3480156101de57600080fd5b506101e76106db565b6040516101f49190610913565b60405180910390f35b600360009054906101000a900460ff1681565b60008054906101000a900473ffffffffffffffffffffffffffffffffffffffff1673ffffffffffffffffffffffffffffffffffffffff163373ffffffffffffffffffffffffffffffffffffffff161461026857600080fd5b600360009054906101000a900460ff1615600360006101000a81548160ff021916908315150217905550565b60046020528060005260406000206000915054906101000a900460ff1681565b6000600154905090565b6060600360009054906101000a900460ff1661030f576040517f08c379a0000000000000000000000000000000000000000000000000000000008152600401610306906109a0565b60405180910390fd5b60006001541415801561036c5750600460003373ffffffffffffffffffffffffffffffffffffffff1673ffffffffffffffffffffffffffffffffffffffff16815260200190815260200160002060009054906101000a900460ff16155b1561046d5760015434146103b5576040517f08c379a00000000000000000000000000000000000000000000000000000000081526004016103ac90610a32565b60405180910390fd5b60008054906101000a900473ffffffffffffffffffffffffffffffffffffffff1673ffffffffffffffffffffffffffffffffffffffff166108fc349081150290604051600060405180830381858888f1935050505015801561041b573d6000803e3d6000fd5b503373ffffffffffffffffffffffffffffffffffffffff167faaabb43b14d633be07bf0db4108608ef34d01ff540a6d923a90e14a1455dafdf60015460405161046491906107de565b60405180910390a25b6001600460003373ffffffffffffffffffffffffffffffffffffffff1673ffffffffffffffffffffffffffffffffffffffff16815260200190815260200160002060006101000a81548160ff021916908315150217905550600280546104d290610a81565b80601f01602080910402602001604051908101604052809291908181526020018280546104fe90610a81565b801561054b5780601f106105205761010080835404028352916020019161054b565b820191906000526020600020905b81548152906001019060200180831161052e57829003601f168201915b5050505050905090565b60015481565b60008054906101000a900473ffffffffffffffffffffffffffffffffffffffff1673ffffffffffffffffffffffffffffffffffffffff163373ffffffffffffffffffffffffffffffffffffffff16146105b357600080fd5b8060018190555050565b6060600460003373ffffffffffffffffffffffffffffffffffffffff1673ffffffffffffffffffffffffffffffffffffffff16815260200190815260200160002060009054906101000a900460ff1661064b576040517f08c379a000000000000000000000000000000000000000000000000000000000815260040161064290610afe565b60405180910390fd5b6002805461065890610a81565b80601f016020809104026020016040519081016040528092919081815260200182805461068490610a81565b80156106d15780601f106106a6576101008083540402835291602001916106d1565b820191906000526020600020905b8154815290600101906020018083116106b457829003601f168201915b5050505050905090565b60008054906101000a900473ffffffffffffffffffffffffffffffffffffffff1681565b60008115159050919050565b610714816106ff565b82525050565b600060208201905061072f600083018461070b565b92915050565b600080fd5b600073ffffffffffffffffffffffffffffffffffffffff82169050919050565b60006107658261073a565b9050919050565b6107758161075a565b811461078057600080fd5b50565b6000813590506107928161076c565b92915050565b6000602082840312156107ae576107ad610735565b5b60006107bc84828501610783565b91505092915050565b6000819050919050565b6107d8816107c5565b82525050565b60006020820190506107f360008301846107cf565b92915050565b600081519050919050565b600082825260208201905092915050565b60005b83811015610833578082015181840152602081019050610818565b60008484015250505050565b6000601f19601f8301169050919050565b600061085b826107f9565b6108658185610804565b9350610875818560208601610815565b61087e8161083f565b840191505092915050565b600060208201905081810360008301526108a38184610850565b905092915050565b6108b4816107c5565b81146108bf57600080fd5b50565b6000813590506108d1816108ab565b92915050565b6000602082840312156108ed576108ec610735565b5b60006108fb848285016108c2565b91505092915050565b61090d8161075a565b82525050565b60006020820190506109286000830184610904565b92915050565b7f436f6e747261637420776173206d61726b656420696e6163746976652062792060008201527f63726561746f7200000000000000000000000000000000000000000000000000602082015250565b600061098a602783610804565b91506109958261092e565b604082019050919050565b600060208201905081810360008301526109b98161097d565b9050919050565b7f496e636f72726563742070726963652c20706c656173652063616c6c20636f6e60008201527f74726163742077697468206e6f6e7a65726f2076616c75650000000000000000602082015250565b6000610a1c603883610804565b9150610a27826109c0565b604082019050919050565b60006020820190508181036000830152610a4b81610a0f565b9050919050565b7f4e487b7100000000000000000000000000000000000000000000000000000000600052602260045260246000fd5b60006002820490506001821680610a9957607f821691505b602082108103610aac57610aab610a52565b5b50919050565b7f43616c6c20707572636861736541636365737320746f20676574206369640000600082015250565b6000610ae8601e83610804565b9150610af382610ab2565b602082019050919050565b60006020820190508181036000830152610b1781610adb565b905091905056fea264697066735822122015256bc9d7abfede148f7231223004b37c7204af1b024880fbcc25a8fcc479e664736f6c63430008130033",
  "linkReferences": {},
  "deployedLinkReferences": {}
}