{
  "_format": "hh-sol-artifact-1",
  "contractName": "DataContract",
  "sourceName": "contracts/DataContract.sol",
  "abi": [
    {
      "inputs": [
        {
          "internalType": "string",
          "name": "_url",
          "type": "string"
        },
        {
          "internalType": "uint256",
          "name": "_fee",
          "type": "uint256"
        }
      ],
      "stateMutability": "nonpayable",
      "type": "constructor"
    },
    {
      "inputs": [],
      "name": "active",
      "outputs": [
        {
          "internalType": "bool",
          "name": "",
          "type": "bool"
        }
      ],
      "stateMutability": "view",
      "type": "function"
    },
    {
      "inputs": [
        {
          "internalType": "uint256",
          "name": "_newFee",
          "type": "uint256"
        }
      ],
      "name": "changeFee",
      "outputs": [],
      "stateMutability": "nonpayable",
      "type": "function"
    },
    {
      "inputs": [],
      "name": "deployer",
      "outputs": [
        {
          "internalType": "address",
          "name": "",
          "type": "address"
        }
      ],
      "stateMutability": "view",
      "type": "function"
    },
    {
      "inputs": [],
      "name": "fee",
      "outputs": [
        {
          "internalType": "uint256",
          "name": "",
          "type": "uint256"
        }
      ],
      "stateMutability": "view",
      "type": "function"
    },
    {
      "inputs": [],
      "name": "getFee",
      "outputs": [
        {
          "internalType": "uint256",
          "name": "",
          "type": "uint256"
        }
      ],
      "stateMutability": "view",
      "type": "function"
    },
    {
      "inputs": [
        {
          "internalType": "address",
          "name": "_address",
          "type": "address"
        }
      ],
      "name": "getUrl",
      "outputs": [
        {
          "internalType": "string",
          "name": "",
          "type": "string"
        }
      ],
      "stateMutability": "view",
      "type": "function"
    },
    {
      "inputs": [
        {
          "internalType": "address",
          "name": "",
          "type": "address"
        }
      ],
      "name": "hasAccess",
      "outputs": [
        {
          "internalType": "bool",
          "name": "",
          "type": "bool"
        }
      ],
      "stateMutability": "view",
      "type": "function"
    },
    {
      "inputs": [],
      "name": "purchaseAccess",
      "outputs": [],
      "stateMutability": "payable",
      "type": "function"
    },
    {
      "inputs": [],
      "name": "toggleActive",
      "outputs": [],
      "stateMutability": "nonpayable",
      "type": "function"
    }
  ],
  "bytecode": "0x60806040523480156200001157600080fd5b506040516200100a3803806200100a833981810160405281019062000037919062000281565b336000806101000a81548173ffffffffffffffffffffffffffffffffffffffff021916908373ffffffffffffffffffffffffffffffffffffffff160217905550816002908162000088919062000528565b50806001819055506001600360006101000a81548160ff02191690831515021790555050506200060f565b6000604051905090565b600080fd5b600080fd5b600080fd5b600080fd5b6000601f19601f8301169050919050565b7f4e487b7100000000000000000000000000000000000000000000000000000000600052604160045260246000fd5b6200011c82620000d1565b810181811067ffffffffffffffff821117156200013e576200013d620000e2565b5b80604052505050565b600062000153620000b3565b905062000161828262000111565b919050565b600067ffffffffffffffff821115620001845762000183620000e2565b5b6200018f82620000d1565b9050602081019050919050565b60005b83811015620001bc5780820151818401526020810190506200019f565b60008484015250505050565b6000620001df620001d98462000166565b62000147565b905082815260208101848484011115620001fe57620001fd620000cc565b5b6200020b8482856200019c565b509392505050565b600082601f8301126200022b576200022a620000c7565b5b81516200023d848260208601620001c8565b91505092915050565b6000819050919050565b6200025b8162000246565b81146200026757600080fd5b50565b6000815190506200027b8162000250565b92915050565b600080604083850312156200029b576200029a620000bd565b5b600083015167ffffffffffffffff811115620002bc57620002bb620000c2565b5b620002ca8582860162000213565b9250506020620002dd858286016200026a565b9150509250929050565b600081519050919050565b7f4e487b7100000000000000000000000000000000000000000000000000000000600052602260045260246000fd5b600060028204905060018216806200033a57607f821691505b60208210810362000350576200034f620002f2565b5b50919050565b60008190508160005260206000209050919050565b60006020601f8301049050919050565b600082821b905092915050565b600060088302620003ba7fffffffffffffffffffffffffffffffffffffffffffffffffffffffffffffffff826200037b565b620003c686836200037b565b95508019841693508086168417925050509392505050565b6000819050919050565b60006200040962000403620003fd8462000246565b620003de565b62000246565b9050919050565b6000819050919050565b6200042583620003e8565b6200043d620004348262000410565b84845462000388565b825550505050565b600090565b6200045462000445565b620004618184846200041a565b505050565b5b8181101562000489576200047d6000826200044a565b60018101905062000467565b5050565b601f821115620004d857620004a28162000356565b620004ad846200036b565b81016020851015620004bd578190505b620004d5620004cc856200036b565b83018262000466565b50505b505050565b600082821c905092915050565b6000620004fd60001984600802620004dd565b1980831691505092915050565b6000620005188383620004ea565b9150826002028217905092915050565b6200053382620002e7565b67ffffffffffffffff8111156200054f576200054e620000e2565b5b6200055b825462000321565b620005688282856200048d565b600060209050601f831160018114620005a057600084156200058b578287015190505b6200059785826200050a565b86555062000607565b601f198416620005b08662000356565b60005b82811015620005da57848901518255600182019150602085019450602081019050620005b3565b86831015620005fa5784890151620005f6601f891682620004ea565b8355505b6001600288020188555050505b505050505050565b6109eb806200061f6000396000f3fe6080604052600436106100865760003560e01c806399e288d81161005957806399e288d814610133578063ced72f871461013d578063d5f3948814610168578063ddca3f4314610193578063e92cde21146101be57610086565b806302fb0c5e1461008b57806329c68dc1146100b65780636a1db1bf146100cd57806395a078e8146100f6575b600080fd5b34801561009757600080fd5b506100a06101fb565b6040516100ad91906105d7565b60405180910390f35b3480156100c257600080fd5b506100cb61020e565b005b3480156100d957600080fd5b506100f460048036038101906100ef919061062d565b610292565b005b34801561010257600080fd5b5061011d600480360381019061011891906106b8565b6102f4565b60405161012a91906105d7565b60405180910390f35b61013b610314565b005b34801561014957600080fd5b50610152610468565b60405161015f91906106f4565b60405180910390f35b34801561017457600080fd5b5061017d610472565b60405161018a919061071e565b60405180910390f35b34801561019f57600080fd5b506101a8610496565b6040516101b591906106f4565b60405180910390f35b3480156101ca57600080fd5b506101e560048036038101906101e091906106b8565b61049c565b6040516101f291906107c9565b60405180910390f35b600360009054906101000a900460ff1681565b60008054906101000a900473ffffffffffffffffffffffffffffffffffffffff1673ffffffffffffffffffffffffffffffffffffffff163373ffffffffffffffffffffffffffffffffffffffff161461026657600080fd5b600360009054906101000a900460ff1615600360006101000a81548160ff021916908315150217905550565b60008054906101000a900473ffffffffffffffffffffffffffffffffffffffff1673ffffffffffffffffffffffffffffffffffffffff163373ffffffffffffffffffffffffffffffffffffffff16146102ea57600080fd5b8060018190555050565b60046020528060005260406000206000915054906101000a900460ff1681565b600360009054906101000a900460ff16610363576040517f08c379a000000000000000000000000000000000000000000000000000000000815260040161035a9061085d565b60405180910390fd5b60015434146103a7576040517f08c379a000000000000000000000000000000000000000000000000000000000815260040161039e906108c9565b60405180910390fd5b60008054906101000a900473ffffffffffffffffffffffffffffffffffffffff1673ffffffffffffffffffffffffffffffffffffffff166108fc349081150290604051600060405180830381858888f1935050505015801561040d573d6000803e3d6000fd5b506001600460003373ffffffffffffffffffffffffffffffffffffffff1673ffffffffffffffffffffffffffffffffffffffff16815260200190815260200160002060006101000a81548160ff021916908315150217905550565b6000600154905090565b60008054906101000a900473ffffffffffffffffffffffffffffffffffffffff1681565b60015481565b6060600460008373ffffffffffffffffffffffffffffffffffffffff1673ffffffffffffffffffffffffffffffffffffffff16815260200190815260200160002060009054906101000a900460ff1661052a576040517f08c379a000000000000000000000000000000000000000000000000000000000815260040161052190610935565b60405180910390fd5b6002805461053790610984565b80601f016020809104026020016040519081016040528092919081815260200182805461056390610984565b80156105b05780601f10610585576101008083540402835291602001916105b0565b820191906000526020600020905b81548152906001019060200180831161059357829003601f168201915b50505050509050919050565b60008115159050919050565b6105d1816105bc565b82525050565b60006020820190506105ec60008301846105c8565b92915050565b600080fd5b6000819050919050565b61060a816105f7565b811461061557600080fd5b50565b60008135905061062781610601565b92915050565b600060208284031215610643576106426105f2565b5b600061065184828501610618565b91505092915050565b600073ffffffffffffffffffffffffffffffffffffffff82169050919050565b60006106858261065a565b9050919050565b6106958161067a565b81146106a057600080fd5b50565b6000813590506106b28161068c565b92915050565b6000602082840312156106ce576106cd6105f2565b5b60006106dc848285016106a3565b91505092915050565b6106ee816105f7565b82525050565b600060208201905061070960008301846106e5565b92915050565b6107188161067a565b82525050565b6000602082019050610733600083018461070f565b92915050565b600081519050919050565b600082825260208201905092915050565b60005b83811015610773578082015181840152602081019050610758565b60008484015250505050565b6000601f19601f8301169050919050565b600061079b82610739565b6107a58185610744565b93506107b5818560208601610755565b6107be8161077f565b840191505092915050565b600060208201905081810360008301526107e38184610790565b905092915050565b7f436f6e747261637420776173206d61726b656420696e6163746976652062792060008201527f63726561746f7200000000000000000000000000000000000000000000000000602082015250565b6000610847602783610744565b9150610852826107eb565b604082019050919050565b600060208201905081810360008301526108768161083a565b9050919050565b7f496e636f72726563742066656520616d6f756e74000000000000000000000000600082015250565b60006108b3601483610744565b91506108be8261087d565b602082019050919050565b600060208201905081810360008301526108e2816108a6565b9050919050565b7f43616c6c20707572636861736541636365737320746f206765742075726c0000600082015250565b600061091f601e83610744565b915061092a826108e9565b602082019050919050565b6000602082019050818103600083015261094e81610912565b9050919050565b7f4e487b7100000000000000000000000000000000000000000000000000000000600052602260045260246000fd5b6000600282049050600182168061099c57607f821691505b6020821081036109af576109ae610955565b5b5091905056fea2646970667358221220dc598ffd3d6b6706b381ddd587e5cec644a2eb1f0e735ff298bca649c1d96db164736f6c63430008130033",
  "linkReferences": {},
  "deployedLinkReferences": {}
}